:10000000002000102D120000A1110000A31100001B
:1000100000000000000000000000000000000000E0
:100020000000000000000000000000008503000048
:100030000000000000000000F1030000A511000016
:100040007D1200007D120000310D00007D120000C5
:100050007D1200007D1200007D1200007D12000064
:100060007D1200007D1200007D1200007D12000054
:100070007D1200007D1200007D1200007D12000044
:100080007D1200007D120000000000000000000052
:100090000000000000000000000000000000000060
:1000A0000000000000000000000000000000000050
:1000B0000000000000000000000000000000000040
:1000C00010B5064C2378002B07D1054B002B02D02E
:1000D000044800E000BF0123237010BD7000001031
:1000E0000000000080220000044B10B5002B03D05C
:1000F0000349044800E000BF10BDC04600000000F6
:100100007400001080220000002243088B4274D348
:1001100003098B425FD3030A8B4244D3030B8B4208
:1001200028D3030C8B420DD3FF22090212BA030C11
:100130008B4202D31212090265D0030B8B4219D3F2
:1001400000E0090AC30B8B4201D3CB03C01A524112
:10015000830B8B4201D38B03C01A5241430B8B425A
:1001600001D34B03C01A5241030B8B4201D30B0343
:10017000C01A5241C30A8B4201D3CB02C01A52416A
:10018000830A8B4201D38B02C01A5241430A8B422D
:1001900001D34B02C01A5241030A8B4201D30B0216
:1001A000C01A5241CDD2C3098B4201D3CB01C01A30
:1001B000524183098B4201D38B01C01A524143093A
:1001C0008B4201D34B01C01A524103098B4201D328
:1001D0000B01C01A5241C3088B4201D3CB00C01A95
:1001E000524183088B4201D38B00C01A524143080D
:1001F0008B4201D34B00C01A5241411A00D2014632
:10020000524110467047FFE701B5002000F006F8A4
:1002100002BDC0460029F7D076E770477047C04658
:1002200003B47146490840004900095E49008E4404
:1002300003BC7047842801D0033070470020FCE7DE
:1002400010B500F081FB002010BDF0B585B00D00A9
:100250004668076804690823C05EFFF7EBFFA2B297
:1002600003AB019300902B003900300000F03CFB01
:10027000012802D1039805B0F0BD0020FBE710B5BE
:10028000002800D1013000F093FC002010BD0300D5
:1002900008334360012252428260C360036100233D
:1002A0000360704700230361704743684B609A689E
:1002B0008A60516099600861036801330360704788
:1002C00030B50C68631C10D0030008331A005B685B
:1002D0001D68A542FAD953684B6099608A605160E5
:1002E000086103680133036030BD0269F3E7036905
:1002F000416882688A60416851605A68824205D0CC
:10030000002202611A68501E1860704782685A60A5
:10031000F6E70000034B1B68013301D072B6FEE71D
:1003200072B6FEE7000000100000000000000000B0
:100330000B4A13681868203080F30988022080F384
:100340001488BFF36F8F3FBCAE4608BC04BC62B6D6
:100350001847C046C046C046C046C046C046C04614
:10036000A40C001010B5031F802464041C60043B1F
:100370001960043B02491960143B1A60403810BDF3
:100380001503000070470000044B802252051A60DC
:10039000BFF34F8FBFF36F8F7047C04604ED00E08F
:1003A00072B6044A136801331360BFF34F8FBFF373
:1003B0006F8F704700000010064B1B68002B01D1A7
:1003C00072B6FEE7013B034A1360002B00D162B610
:1003D0007047C04600000010EFF3108072B67047FF
:1003E000002080F31088704700000000000000002B
:1003F000EFF309800E4B1A6820381060F0C04446B5
:100400004D4656465F46F0C008B572B600F01EFC79
:1004100062B60CBC116808681030F0C8A046A94646
:10042000B246BB4680F309882038F0C81847C0465A
:10043000A40C001010B5FFF7CFFF040000F0BAFACB
:10044000002803D0034B802252051A602000FFF7DA
:10045000C8FF10BD04ED00E010B5064B1868FA2186
:100460008900FFF751FE0138034B1860034B072248
:100470001A6010BD0800001014E000E010E000E079
:1004800010B50A4B1968FF2212040A431A60196852
:10049000FF2212060A431A60FFF7DEFF044B002218
:1004A0001A60FFF745FFFFF735FFC04620ED00E07B
:1004B00000000010124A53071FD0D11D0723994393
:1004C000C0231B015B1A9B180A000E480260002122
:1004D0004160D318083B072083430B4803605960F1
:1004E0001960991A51601360084B1960084B196024
:1004F000084B802212061A607047C0231B01E4E7F4
:10050000900000109C0C00108C000010980C001043
:10051000940C0010900C001010B5124B1A001B68C0
:100520008342FBD351685418844208D04168441870
:10053000A34209D00360904200D0106010BD406813
:10054000091851601000F1E7074C2468A34206D057
:100550005B68C918416013681B680360EBE70460BF
:10056000E9E7C0469C0C00108C00001070B5050037
:1005700000F018FA2C4B1B68002B14D02B4B1B6877
:100580002B4242D1002D05D008356B0702D007233E
:100590009D430835002D3AD0254B1B68AB423DD317
:1005A000244A146804E0FFF785FFE7E722001C00F7
:1005B0006368AB4202D22368002BF7D11A4B1B6849
:1005C000A3422DD0166808362368136063685B1B4E
:1005D000102B08D96019420701D072B6FEE74360BC
:1005E0006560FFF799FF626811490B689B1A0B6001
:1005F000114909688B4201D20F490B600B4B1B68F4
:10060000134363600023236002E0002600E000261D
:1006100000F05AFA730705D072B6FEE70026F7E736
:100620000026F5E7300070BD8C000010900C001023
:10063000940C00109C0C0010980C001070B5002851
:1006400020D00500083D6B680F4A12681A4201D19C
:1006500072B6FEE7010008390968002901D072B6B8
:10066000FEE7083804009343436000F09BF9636899
:10067000064A11688C46634413602800FFF74CFF5C
:1006800000F022FA70BDC046900C0010940C0010CF
:10069000084B1B681B68002B04D1074B01225242F8
:1006A0001A607047034B1B68DB68DB685A68024BB3
:1006B0001A60F6E7A80C0010800D001010B50400B9
:1006C000006BFFF7BBFF2000FFF7B8FF10BD000075
:1006D000F0B5DE4657464E46C0B582469B46089E5C
:1006E0000A9F1F4B9C46624492003B6B9C466244AF
:1006F00007239A43914600240F2C08D80B5D3D191F
:1007000034352B700B5D002B01D00134F4E743230B
:100710000022FA54062E00D90626FE627E640024CA
:10072000BC64381DFFF7BEFD38001830FFF7BAFD76
:100730003F6107239E1BBE617F62FC644933FC540A
:100740005A4651464846FFF70DFE3860099B002B7C
:1007500000D01F60E0BCBB46B246A946F0BDC04613
:10076000FFFFFF3F70B5002407E0A3001B199800AE
:100770000E4BC018FFF78BFD0134062CF5D90C4D3C
:100780002800FFF784FD0B4C2000FFF780FD0A488E
:10079000FFF77DFD0948FFF77AFD0948FFF777FD70
:1007A000084B1D60084B1C6070BDC046B00C0010AB
:1007B000540D0010680D0010880D0010B40D0010CD
:1007C000A00D0010A80C0010AC0C001010B5040017
:1007D000FFF7E6FD1F4A1368013313601E4B1B68C9
:1007E000002B0CD01D4B1B68002B0DD11A4B1B6826
:1007F000DB6AE26A934207D8174B1C6004E0164B91
:100800001C601368012B1FD0154A13680133136055
:10081000E36A144A1268934201D9124A1360211DF7
:100820009800C0188000104BC018FFF73EFDFFF77E
:10083000C3FD0A4B1B68002B05D0074B1B68DA6A07
:10084000E36A9A4203D310BDFFF78CFFDCE7FFF7A2
:100850009BFDF8E73C0D0010A40C00109C0D00104F
:100860004C0D0010500D0010B00C001070B50400BD
:100870000D00174B1E68174B18680430FFF737FD43
:10088000631C0DD03419134B1B685C60A64210D951
:10089000114B18680F4B19680431FFF711FD70BD3B
:1008A000002DEFD00B4B196804310C48FFF7FDFC0D
:1008B000F5E70B4B1868074B19680431FFF700FD8B
:1008C000084B1B68A342EAD9064B1C60E7E7C04609
:1008D000C80D0010A40C0010AC0C0010A00D0010EE
:1008E000A80C0010800D0010F0B587B004900591A1
:1008F00016001F009000FFF739FE041E1DD0542083
:10090000FFF734FE051E14D00463002D19D0002318
:10091000039302950D9B01930C9B00933B003200C7
:1009200005990498FFF7D4FE2800FFF74FFF012038
:1009300005E02000FFF782FEE7E70120404207B014
:10094000F0BD01204042FAE700B583B00F4B0193A0
:100950000023009380220E490E48FFF7C5FF0128AF
:1009600003D0431C0FD003B000BD72B60A4B012266
:1009700052421A60094B02321A60094B00221A6077
:10098000FFF77EFDEFE772B6FEE7C0467C0D001074
:10099000D4220000350C0000800D00109C0D0010CA
:1009A000C80D0010024A1368013313607047C04637
:1009B000480D0010F8B5394B1B68002B61D1384B3E
:1009C0001D6801351D60002D12D1364B1B681B6858
:1009D000002B01D072B6FEE7324A1168324B18681C
:1009E00010601960314A136801331360FFF750FE3D
:1009F0002F4B1B68AB423AD900272E4B1B68DA6A93
:100A000093009B189A002C4BD358012B3ED90127F9
:100A10003CE00127234B1B681B68002B29D0214B8E
:100A20001B68DB68DC6863689D4227D3261D3000A5
:100A3000FFF75DFCA36A002B03D020001830FFF7FE
:100A400056FCE26A1D4B1B689A4201D91B4B1A6087
:100A500093009B189800184BC0183100FFF725FC35
:100A6000E26A144B1B68DB6A9A42D2D2D2E70027B3
:100A7000D0E70F4B012252421A60BEE70C4A1360C6
:100A8000BBE70F4A13680133136000270D4B1B6847
:100A9000002B00D001273800F8BDC046480D0010DB
:100AA000C80D0010A80C0010AC0C0010840D001034
:100AB000800D0010A40C0010B00C0010500D0010A0
:100AC000440D0010CC0D001070B5314B1B68002B8D
:100AD00001D172B6FEE7FFF763FC2D4B1A68013AAD
:100AE0001A601B68002B4DD12A4B1B68002B01D1CB
:100AF000002448E00024284B1B68002B23D0264B01
:100B0000DB68DC6820001830FFF7F1FB251D2800AA
:100B1000FFF7EDFBE36A214A1268934201D91F4AAD
:100B200013609800C01880001D4BC0182900FFF703
:100B3000BCFB1C4B1B68DB6AE26A9A42DBD31A4B94
:100B400001221A60D7E7002C01D0FFF7A1FD174B57
:100B50001C68002C0AD1144B1C68002C13D0FFF722
:100B600013FC01240FE0013C002C07D0FFF722FF0B
:100B70000028F8D00C4B01221A60F4E70B4B00223E
:100B80001A60E8E70024FFF717FC200070BDC0469C
:100B9000480D00103C0D0010880D0010500D001085
:100BA000B00C0010A40C0010CC0D0010440D00106F
:100BB00010B5041E0FD0094B1B68002B01D072B674
:100BC000FEE7FFF7EFFE00212000FFF74FFEFFF7E3
:100BD0007BFF002801D1FFF7D7FB10BD480D0010A7
:100BE00010B5114B1B68002B1DD0FFF7DBFE0F4B20
:100BF0001C68FFF769FF002CF3D0FFF7D1FB0B4B0C
:100C0000DB68DC68201DFFF772FB094A1368013BB3
:100C10001360054A1368013B1360FFF7CDFB20000A
:100C2000FFF74CFDDDE710BD400D0010B40D0010C6
:100C30003C0D001010B5FFF7D3FF034B1B68012BD1
:100C4000F9D9FFF7A1FBF6E7B00C001030B51C4B4B
:100C50001B68002B03D01B4B01221A6030BD194BBF
:100C600000221A60184B1B689A00D2189100174A8C
:100C70008A58002A05D1002B01D0013BF4E772B657
:100C8000FEE7124D9900CA1890002818426854686F
:100C90004460C9188A000832521994420BD09A0055
:100CA000D2189100094A52185268D168084A116056
:100CB000054A1360D2E7606889006A185060EEE761
:100CC000480D0010CC0D0010500D0010B00C00109D
:100CD000A40C0010064B1B68002B07D0054B1B68AB
:100CE000002B01D0002002E0022000E0012070472C
:100CF0009C0D0010480D001030B5050B0302C024F8
:100D0000A4021C40A023DB052343002908D1196A53
:100D1000A9431962FF23034004481843026030BD11
:100D20000129F7D1196A0D431D62F3E70040044021
:100D300070B58023DB055C684B2C10D0542C0ED092
:100D40008023DB051B689B0700D4B0E0BF231C4059
:100D50001D2C00D9A3E0A4007A4B1B599F46802389
:100D6000DB0510221A6019329A61774B283A1A7003
:100D700070BD764B1B78DA0705D58022D2059360CB
:100D800029239361F4E78023DB0501221A606F4A6F
:100D900012789A6028229A61EAE78023DB051B68B3
:100DA000DB071BD56A4B1B68002B0FDD69490A68FE
:100DB000501C086011788022D2059160013B644A82
:100DC00013608023DB0508229A61D1E78023DB05CD
:100DD00010221A605C4B0E3A1A70F2E75E4B1B68E9
:100DE000002B08DD8023DB0504221A608023DB054D
:100DF00028229A61BCE78023DB0504229A61F5E78B
:100E0000534B1B68002B0FDD52490A68501C0860C9
:100E100011788022D2059160013B4D4A13608023F6
:100E2000DB0508229A61A3E74B4B1B68002B04DD0E
:100E30008023DB0509229A61F1E78023DB0510227C
:100E40001A60414B0F3A1A70E9E78023DB05986876
:100E5000414B1B68002B0EDD40490A68541C0C6096
:100E60001070013B3C4A13608023DB0504221A60AA
:100E700004329A617CE78023DB051B685B0704D59D
:100E80008023DB050C229A6172E78023DB051022A8
:100E90001A602D4A0121117008229A6168E72A4BD5
:100EA00002221A708023DB0506329A6160E7E305AF
:100EB0002BD58023DB059D68294B1B682900032067
:100EC0009847EB071CD58022D205136801210B43FC
:100ED00013608023DB05802252009A61FC3A1A607D
:100EE000002C08D18023DB051B68DB0703D580239A
:100EF000DB0501229A618023DB0528229A6137E70E
:100F00008023DB0501229A61E3E7A30509D580254B
:100F1000ED05A968124B1B680420984704232B6039
:100F2000DEE76305DCD50E4B1B68002105209847E2
:100F30008023DB0504221A601A6801210A431A6023
:100F4000CEE7C046DC220000D10D0010D00D00100D
:100F5000E40D0010D80D0010DC0D0010D40D0010B1
:100F6000E00D0010012904D0044A53681843506072
:100F70007047024A536883435360F9E70080044096
:100F800010B50C4B984203D00B4B984209D010BDC2
:100F900001210420FFF7E6FF00210420FFF7E2FF14
:100FA000F5E701210820FFF7DDFF00210820FFF70A
:100FB000D9FFECE70080004000C0004070B505009C
:100FC00014001E000D4B98420ED00D4B984210D0CD
:100FD0000C4B1868FFF798F82861AA680A4B1A406A
:100FE00034431443AC6070BD084A98230120D050AC
:100FF000EEE7064A9C230120D050E9E7008000403C
:1010000000C0004004000010FFFC3FFF00800440CF
:101010000160704710B50C00110006E043685B07E3
:10102000FCD423780360110001344A1E92B20029D7
:10103000F4D14368DB07FCD410BD012A03D08368D8
:101040008B4383607047836819438160FAE700002F
:1010500010B50E4C220001210D48FFF74DFE220075
:1010600000210C48FFF748FE0B4C2000FFF788FFDB
:10107000C02396211B04002209022000FFF79EFFD7
:10108000002200212000FFF7D8FF10BD320200002F
:1010900090002000940040000080004010B506221F
:1010A00004490548FFF7B6FFFA204000FFF7E7F8CC
:1010B000F5E7C046782300000080004010B5054BDE
:1010C0001988054800F008F9FA204000FFF7D7F822
:1010D000F5E7C046E80D00108023000010B5064A71
:1010E00013880133138061210448FFF791FFFA2030
:1010F0004000FFF7C4F8F2E7E80D00100080004060
:1011000010B50C001000002207E0054B5B68DB0700
:10111000FBD5A15C024B196001328242F5DB10BDA8
:101120000080004010B500F075F800F045F810BDE3
:1011300070B590B0FFF7F6FFFFF78AFF0BA8144CCD
:101140000300220062CA62C322CA22C30021FFF741
:101150007CF8104B186006A823001433020062CB01
:1011600062C222CB22C20021FFF76FF80A4B18603F
:1011700001A8283402002ACC2AC20ACC0AC20021C3
:10118000FFF763F8054B1860FFF75AF8FEE7C04613
:1011900098220000EC0D0010F00D0010F40D00106E
:1011A0007047FEE710B5FFF795FD012800D110BD8F
:1011B000FFF740F9FBE7000010B5114B1B6F03224E
:1011C000110019401A420AD0022914D00C4B996F11
:1011D0000C4B1868FEF798FF0B4B186010BD084BBE
:1011E0009B6A9B0603D5074B084A1A60EEE7054B3E
:1011F000074A1A60EAE7034BFA22D2011A60E5E7D0
:10120000008004400400001008000010006CDC02A4
:10121000005A6202044B01225A6700221A675A6779
:1012200002329A677047C046008004400D488546E8
:101230000D480E490E4A002302E0D458C45004332E
:10124000C4188C42F9D30B4A0B4C002301E0136005
:101250000432A242FBD3FFF7DDFF00F011F8FFF7E5
:1012600067FFFEE700200010000000107000001073
:1012700028240000700000100C0E0010FEE7000093
:1012800070B500260C4D0D4C641BA410A64209D16C
:10129000002600F0F5FF0A4D0A4C641BA410A6427C
:1012A00005D170BDB300EB5898470136EEE7B300A7
:1012B000EB5898470136F2E7202400002024000074
:1012C000202400002424000003008218934200D14F
:1012D000704719700133F9E70FB40B4B13B51C6855
:1012E000002C05D0A369002B02D1200000F070F87B
:1012F00005AB2000049AA168019300F093F916BC95
:1013000008BC04B01847C0460C000010002310B5FC
:101310000400036043608360818143661900C281D9
:1013200003614361836108225C30FFF7CDFF054B09
:1013300024626362044BA362044BE362044B2363A5
:1013400010BDC046C11B0000E91B0000211C0000AD
:101350004D1C000010B5024900F0BAF810BDC0469F
:10136000591F000070B568254A1E55430E0029001C
:10137000743100F0D1F8041E08D000212A00016069
:1013800046600C30A0606832FFF79EFF200070BD01
:1013900010B5024800F0BDF810BDC046F90D0010B0
:1013A00010B5024800F0B6F810BDC046F90D0010A7
:1013B00010B5024800F0ADF810BDC046FA0D00109F
:1013C00010B5024800F0A6F810BDC046FA0D001096
:1013D00013B50400FFF7ECFFA369002B02D0FFF761
:1013E000EFFF13BDA364E3642365134B134A1B682B
:1013F000A2620193A34201D10123A361200000F066
:101400001FF86060200000F01BF8A060200000F0D2
:1014100017F800220421E0606068FFF777FF0122DF
:101420000921A068FFF772FF02221221E068FFF78E
:101430006DFF0123A361D2E788230000551300004C
:10144000F8B50700FFF7A4FF1F4B1E68B369002B18
:1014500002D13000FFF7BCFF4836B4687368013B27
:1014600004D53368002B22D03668F6E70C22A55E3F
:10147000002D1AD12000154B5830E360656600F04E
:1014800047F8FFF78DFF2000082229002560A5609E
:10149000656025616561A5615C30FFF715FF6563D7
:1014A000A563A564E5642000F8BD6834D7E704218E
:1014B0003800FFF757FF041E3060D5D1FFF770FFEB
:1014C0000C233B60EFE7C046882300000100FFFFCC
:1014D000F7B5040006000027019148346368A56849
:1014E0000093009B013B009304D52468002CF5D1A8
:1014F0003800FEBDAB89012B08D90E22AB5E01334B
:1015000004D029003000019B984707436835E8E77D
:101510007047704770470000F8B50323CD1C9D430A
:10152000083506000C2D1FD20C25A9421ED830000C
:1015300000F0DEFD25490A681400002C1AD1244F62
:101540003B68002B04D12100300000F027FB3860FD
:101550002900300000F022FB431C2BD10C2330006B
:10156000336000F0CDFD03E0002DDEDA0C233360A4
:101570000020F8BD23685B1B19D40B2B03D9236013
:10158000E418256003E06368A2420ED10B603000CE
:1015900000F0B6FD200007220B30231D9043C21A35
:1015A0009842E6D01B1AA350E3E75360EFE722000E
:1015B0006468C2E70323C41C9C43A042E1D0211A03
:1015C000300000F0EBFA431CDBD1C7E7FC0D001044
:1015D000000E0010936810B5013B9360002B04DAF5
:1015E0009469A34207DB0A2905D01368581C1060D0
:1015F0001970080010BD00F02FFB0100F9E7F8B5E5
:1016000006000F001400D518AC4201D1002007E0FD
:1016100021783A003000FFF7DDFF0134431CF3D19D
:10162000F8BD0000F0B5A1B006000C001F00039249
:10163000002804D08369002B01D1FFF7C9FE8E4B2F
:101640009C421CD17468636EDB0705D4A3899B059B
:1016500002D4A06DFFF75DFFA3891B0702D52369A4
:10166000002B1DD12100300000F060FB002817D0B6
:10167000636EDB070DD50120404221B0F0BD7F4BEA
:101680009C4201D1B468DEE77D4B9C42DBD1F4681B
:10169000D9E7A3899B05EED4A06DFFF73BFFEAE7EE
:1016A000002308AD6B6120336B761033AB76079760
:1016B000039F3B78002B01D0252B4ED1039BFB1AB7
:1016C0000593039B9F420DD0059B21003000039A98
:1016D000FFF795FF431C00D1B5E06A69059B94466E
:1016E00063446B613B78002B00D1ACE001227B1C92
:1016F0000393002352426A6004A9543252182B60AB
:10170000EB60AB601370AB65039B052219785D48F5
:1017100000F0E2FC039B5F1C002820D12A68D3065E
:1017200004D5532304A95B1820211970130704D58D
:10173000532304A95B182B211970039B1B782A2BB8
:1017400016D00021EB68039F3A78781C303A844623
:10175000092A4FD9002911D117E00137A9E7494BD0
:101760002A68C01A0123834013432B600397CBE7F9
:10177000079B191D1B680791002B01DB0B9304E0ED
:101780005B42EB60022313432B603B782E2B0AD184
:101790007B782A2B37D1079B02371A1D1B680792CB
:1017A000002B2DDB099303223978374800F094FC95
:1017B000002807D0344B2A68C01A402383401343C3
:1017C00001372B6039787B1C062230480393297639
:1017D00000F082FC002845D02D4B002B27D107229A
:1017E000079B07339343083307936B69049A9B184D
:1017F0006B615DE70A214B4367469B180939A3E7F4
:1018000001235B42CEE700231A0001376B60397871
:10181000781C30398446092903D9002BC3D009929A
:10182000C1E70A235A4367465218093BEFE707AB63
:101830000093220029003000164B00E000BF049006
:10184000049B0133D1D1636EDB0705D4A3899B05CB
:1018500002D4A06DFFF75EFEA3895B0600D50AE700
:101860000D980AE707AB0093220029003000094BCE
:1018700000F082F8E3E7C046AC230000CC23000070
:101880008C230000EC230000F2230000F62300006C
:1018900000000000FF150000F7B5150001938A68ED
:1018A0000B690C000090934200DA130022002B60B9
:1018B00043321278002A01D001332B6023689B0643
:1018C00002D52B6802332B602268062317001F40C5
:1018D0001A4227D0230043331B785A1E93412268B3
:1018E000920630D4220001990098089E4332B047F6
:1018F000431C25D0062320682A68E16800250340A0
:10190000042B03D18D1AEB43DB171D40A36822691A
:10191000934201DD9B1AED180027BD4220D1002023
:1019200010E00137E3682A689B1ABB42D2DD22002F
:10193000012301990098089E1932B047431CF0D149
:1019400001204042FEBD3020E118433108702100E3
:101950005A1C45310978A218433202331170C1E78D
:101960002200012301990098089E1A32B047431CB7
:10197000E6D00137D1E70000F0B58BB006920A003F
:1019800043320793059004920A7E0C00109B782A3C
:1019900007D8622A09D8002A00D1C1E0582A00D10C
:1019A0008CE026004236327022E0100063381528A1
:1019B000F7D8FEF735FC16001F00F6FFF6FFF6FF1E
:1019C000F6FF1F00F6FFF6FFF6FFF6FFA800360051
:1019D0009A00F6FFF6FFB900F6FF3600F6FFF6FFB5
:1019E0009E0026001A684236111D19601368337074
:1019F0000123A7E0086819680A1D05060BD50D68C4
:101A00001A60002D03DA2D23049A6D421370614B86
:101A10000A2703931BE00D681A604106F1D52DB229
:101A2000EFE70D681968081D18602E0601D50D68CE
:101A300003E06D06FBD50D68ADB2564B0827039346
:101A40006F2A00D002372300002243331A706368E4
:101A5000A360002B03DB0422216891432160002D49
:101A600002D1049E002B0CD0049E28003900FEF702
:101A7000D1FB039B013E5B5C33702B0005009F4252
:101A8000F3D9082F09D12368DB0706D563682269DB
:101A9000934202DC3023013E3370049B9B1B236185
:101AA000079B210000930598069B09AAFFF7F4FE07
:101AB000431C4CD1012040420BB0F0BD45310A70AF
:101AC000344A03921A68216820CA1A60080616D59B
:101AD000CB0702D52023194321601027002DB2D156
:101AE000202322689A432260ADE7202209680A4336
:101AF00022602200782145321170274AE1E748062A
:101B0000E6D5ADB2E4E71A680D68101D49691860A2
:101B100013682E0601D5196002E06D06FBD5198009
:101B20000023049E2361BBE71A68111D1960166823
:101B300000213000626800F0CFFA002801D0801B3D
:101B40006060636823610023049A1370A8E7236927
:101B5000320006990598079DA847431CAAD0236820
:101B60009B0715D4099BE0689842A5DA1800A3E703
:101B70002200012306990598079E1932B047431C9D
:101B800098D00135E368099A9B1AAB42F0DCE9E78B
:101B90000025F7E7FD2300000E240000002370B5A8
:101BA000064D040008002B6000F05CFB431C03D1D1
:101BB0002B68002B00D0236070BDC046040E0010BF
:101BC00070B50C000E25495F00F0ECFA002803DB2D
:101BD000636D1B18636570BDA389024A1340A3811E
:101BE000F9E7C046FFEFFFFFF8B51F008B8905003E
:101BF0000C001600DB0505D50E23C95E002202236A
:101C000000F0EAF9A389054A28001340A3813200B5
:101C10000E23E15E3B0000F075F8F8BDFFEFFFFF1B
:101C200070B50C000E25495F00F0D6F9A389421C5F
:101C300003D1054A1340A38170BD80225201134392
:101C4000A3816065F8E7C046FFEFFFFF10B50E23E4
:101C5000C95E00F0E3F810BDF8B505000E001400F1
:101C6000002804D08369002B01D1FFF7B1FB224B80
:101C70009C422ED16C68A369A360A3891B0732D54F
:101C80002369002B2FD023682269F7B2981A636961
:101C9000F6B2834205DC2100280000F05DF900283F
:101CA00027D1A3680130013BA36023685A1C22603E
:101CB0001F706369834204D0A389DB0707D50A2E0E
:101CC00005D12100280000F047F9002811D130008B
:101CD000F8BD0A4B9C4201D1AC68CCE7084B9C4252
:101CE000C9D1EC68C7E72100280000F01FF80028E0
:101CF000C9D001267642EAE7AC230000CC230000DD
:101D00008C23000070B50400080011001A000023A5
:101D1000054D2B60FFF7F4F9431C03D12B68002B12
:101D200000D0236070BDC046040E0010374B70B564
:101D30001D6806000C00002D05D0AB69002B02D1F8
:101D40002800FFF745FB324B9C420FD16C680C23F7
:101D5000E25E93B211072DD4D90611D409230120D4
:101D6000336037331343A381404270BD294B9C42FB
:101D700001D1AC68EBE7284B9C42E8D1EC68E6E780
:101D80005B0713D5616B002908D0230044339942C7
:101D900002D0300000F0BCF9002363632422A38941
:101DA0009343A38100236360236923600823A289EE
:101DB0001343A3812369002B0BD1A0218022A38987
:101DC000890092000B40934203D02100300000F0C4
:101DD0003FF90C22A35E01201A0099B2024003428F
:101DE0000FD00022A26062695242A26100202269E3
:101DF0008242BAD10A06B8D540221343A3810138E2
:101E0000B3E7880700D46269A260EFE70C00001016
:101E1000AC230000CC2300008C230000002370B50D
:101E2000064D040008002B6000F0F4F9431C03D1B8
:101E30002B68002B00D0236070BDC046040E00103C
:101E4000F7B58B8905000C001A075FD44A68002A91
:101E500004DC0A6C002A01DC0020FEBDE76A002FCA
:101E6000FAD0002280212E682A601A0049010A4017
:101E70000B4234D0606DA3895B0706D56368C01A36
:101E8000636B002B01D0236CC01A0200216A00236F
:101E90002800E76AB847A189431C06D12B681D2B8F
:101EA00031D82C4ADA40D3072DD50023636023694B
:101EB0002360CB0405D5431C02D12B68002B00D135
:101EC0006065616B2E600029C6D0230044339942BF
:101ED00002D0280000F01CF900206063BDE7012358
:101EE0002800216AB847431CC5D12B68002BC2D0FB
:101EF0001D2B01D0162B01D12E60ADE74023A28906
:101F00001343A381A9E740230B43FAE70F69002F8E
:101F1000A2D00A680F60D21B019200229B0700D159
:101F20004A69A260019B002B00DC95E73A0028007B
:101F3000019B216AA66AB047002806DC40230120E5
:101F4000A28940421343A38187E7019B3F181B1AD4
:101F50000193E7E7010040200B6970B505000C0014
:101F6000002B02D10025280070BD002804D0836911
:101F7000002B01D1FFF72CFA144B9C421BD16C684B
:101F80000C22A35E002BEDD0626ED20704D49B0519
:101F900002D4A06DFFF7BDFA28002100FFF750FF23
:101FA000636E0500DB07DED4A3899B05DBD4A06D3F
:101FB000FFF7B0FAD7E7064B9C4201D1AC68DFE7E8
:101FC000044B9C42DCD1EC68DAE7C046AC2300004D
:101FD000CC2300008C23000070B504000800110021
:101FE0001A000023054D2B6000F02CF9431C03D18F
:101FF0002B68002B00D0236070BDC046040E00107B
:1020000070B50E001D000E23C95E140096B00029A5
:1020100008DA0C22B35E00222A601B0611D480234A
:10202000DB000FE06A4600F0D1F80028F1DBF02376
:1020300001991B021940054BC9184B4259412960AF
:10204000EDE740230020236016B070BD00E0FFFFE5
:10205000F7B502268B8905000C00334206D0230019
:1020600047332360236101236361F7BD6A4601ABF7
:10207000FFF7C6FF009907002800FFF74DFA002878
:1020800008D10C22A35E9A05EFD4032293431E438A
:10209000A681E4E70F4BAB628023A2892060134343
:1020A000A381009B20616361019B002B0DD0280060
:1020B0000E23E15E00F09CF8002806D00322A389DD
:1020C00093431A0001231343A381A0890743A781E7
:1020D000CBE7C04655130000C9B28218904201D127
:1020E0000020704703788B42FBD00130F6E70000F8
:1020F00010B50248FFF70DFA10BDC046F80D0010EC
:1021000010B50248FFF706FA10BDC046F80D0010E2
:1021100070B50500002910D00C1F2368002B00DAD1
:10212000E4182800FFF7E4FF1D4A1368002B05D1CF
:10213000636014602800FFF7E3FF70BDA34208D975
:10214000216860188342F3D118685B6841182160E8
:10215000EEE71A005B68002B01D0A342F9D91168A1
:102160005018A0420BD12068091850181160834202
:10217000E0D118685B68411811605360DAE7A0424B
:1021800002D90C232B60D5E721686018834203D164
:1021900018685B684118216063605460CAE7C046F4
:1021A000FC0D001070B50400080011001A00002397
:1021B000054D2B6000F04EF8431C03D12B68002B1B
:1021C00000D0236070BDC046040E0010002370B51F
:1021D000064D0400080011002B6000F023F8431C9A
:1021E00003D12B68002B00D0236070BD040E0010BB
:1021F000002370B5064D040008002B6000F01AF8AB
:10220000431C03D12B68002B00D0236070BDC04657
:10221000040E001058220120014B40421A60704702
:10222000040E001058220120014B40421A607047F2
:10223000040E00105822024B00201A607047C0465E
:10224000040E001058220120014B40421A607047D2
:10225000040E001058220120014B40421A607047C2
:10226000040E0010044A03001068002802D0C318AE
:10227000136070470148FAE7080E0010100E0010B6
:10228000F8B5C046F8BC08BC9E467047F8B5C046D5
:08229000F8BC08BC9E46704733
:10229800542300009D100000000000000000000012
:1022A8008000000060230000BD1000000000000056
:1022B80000000000800000006C230000DD1000001A
:1022C80000000000000000008000000049444C4568
:1022D800000000009E0E0000720D00009E0E00001F
:1022E8009E0E00009E0E00009E0E00009E0E000036
:1022F8009E0E00009E0E00009E0E00009E0E000026
:102308009A0D00009E0E00009E0E00009E0E00001A
:102318009E0E0000720D00009E0E00009E0E000032
:102328009E0E0000000E00009E0E00009E0E000093
:102338009E0E00009E0E00009E0E00009E0E0000E5
:102348009E0E00009E0E00004A0E00006465666145
:10235800756C745461736B006D795461736B3032B2
:10236800000000006D795461736B30330000000089
:10237800333333330D0A000025640D0A00000000D2
:102388001000001000000000000000000000000025
:102398000000000000000000000000000000000035
:1023A8000000000000000000000000000000000025
:1023B8000000000000000000000000000000000015
:1023C8000000000000000000000000000000000005
:1023D80000000000000000000000000000000000F5
:1023E80000000000232D302B2000686C4C0065662F
:1023F800674546470030313233343536373839414E
:102408004243444546003031323334353637383963
:08241800616263646566000067
:04242000E9000000CF
:04242400C1000000F3
:10242800AAAAAAAA006CDC0200366E0110000010ED
:1024380000000000AC230000CC2300008C23000027
:102448000000000000000000000000000000000084
:102458000000000000000000000000000000000074
:102468000000000000000000000000000000000064
:102478000000000000000000000000000000000054
:102488000000000000000000000000000000000044
:040000030000122DBA
:00000001FF
